:1000000002066DC2AFF508610DFFFFC2AFF50861D2
:100010001FFFFFC2AFF5086131FFFFC2AFF50861F6
:1000200043FFFFC2AFF5086155FFFFC2AFF508619E
:1000300067FFFFC2AFF5086179FFFFC2AFF5086146
:100040008BFFFFC2AFF508619DFFFFC2AFF50861EE
:10005000AFFFFFC2AFF50861C1FFFFC2AFF5086196
:10006000D3FFFFC2AFF50861E5FFFFC2AFF508613E
:10007000F7FFFFC2AFF5088109FFFFC2AFF50881A6
:100080001BFFFFC2AFF508812DFFFFC2AFF508814E
:100090003FFFFFFF758701002274F312053A890ABA
:1000A000750C00750D08780C12063E7C807D017A77
:1000B000007B0012045574021205FB850A0D9001A5
:1000C00086E0F50EA3E0F50F7409780E12064FE5F1
:1000D0000EF50B9001867409780E12062BE0C3F51D
:1000E0000EA3E0950FF50F7402780E12062BAE0EDC
:1000F000AF0FE50D250BF50B7401650D7006743E11
:10010000250BF50B53B4F375BC0075BC008042742D
:100110008028F582740139F583E0F5BDE8240108F3
:10012000E93400F9C39408402C050A7408650A7084
:1001300003750A46750E00750F08780E12063E7C90
:10014000807D017A007B00A90A1204557402120511
:10015000FB78007900E50D650A700AE849700678B9
:1001600003790080B7E50B650A70A4EE687002EFB2
:1001700069709CE5BD85BC0C850C0EAA0EFB7F0644
:100180000205A074F612053A890CEAFEEBFF53BE95
:10019000FBE59DA2E650FAE5C654804449F5C6E564
:1001A0009E547F644970F853C67FE59EA2E740FAEB
:1001B00053C680E59E547F70FA43BE04906270740B
:1001C00008F07409F5D575D4801200998E828F835A
:1001D000E0F8A3E0F9EA687002EB6970428E828F62
:1001E00083A3A3E8F0A3E9F08E828F8374FFF0A3CA
:1001F000F0750A01750B00780A12063EEEFCEFFD61
:10020000850C0A7409780A12062BFAAB0B1204D675
:1002100074021205FBC2AF75C9AB75C95B80FE7F66
:10022000030205A074FC120615750A04750B00780C
:100230000A12063E7402120689AC82AD837A007BF4
:1002400000790812045574021205FB851A82E0F445
:100250007003A3E0F4602D851A82851B83E0F8A368
:10026000E0F9E849601E7402120689E0687003A391
:10027000E0697010750901024030C2AF75C9AB75F5
:10028000C95B80FE780A12063E7402120689AC82AF
:10029000AD837A007B00790112045574021205FBCC
:1002A000851A82E0F47003A3E0F46051851A828518
:1002B0001B83E0F8A3E0F9E8496042740212068962
:1002C000E0F8A3E0F9851A82851B83E0687003A338
:1002D000E0697010750900020830C2AF75C9AB75CE
:1002E000C95B80FE74FF68700374FF69700F851A24
:1002F00082851B83AA82AB83790112018343BE03EB
:10030000120094C2AF75C9AB75C95B80FEE5096088
:1003100007E508D2AF024033E508D2AF020833E563
:10032000096007E508D2AF02403BE508D2AF0208FA
:100330003BE5096007E508D2AF024043E508D2AFCC
:10034000020843E5096007E508D2AF02404BE50823
:10035000D2AF02084BE5096007E508D2AF0240536F
:10036000E508D2AF020853E5096007E508D2AF02FD
:10037000405BE508D2AF02085BE5096007E508D2FB
:10038000AF024063E508D2AF020863E5096007E504
:1003900008D2AF02406BE508D2AF02086BE50960F6
:1003A00007E508D2AF024073E508D2AF020873E553
:1003B000096007E508D2AF02407BE508D2AF02082A
:1003C0007BE5096007E508D2AF024083E508D2AFBC
:1003D000020883E5096007E508D2AF02408BE50813
:1003E000D2AF02088BE5096007E508D2AF0240935F
:1003F000E508D2AF020893E5096007E508D2AF022D
:10040000409BE508D2AF02089BE5096007E508D2EA
:10041000AF0240A3E508D2AF0208A3E5096007E5F3
:1004200008D2AF0240ABE508D2AF0208ABE50960E5
:1004300007E508D2AF0240B3E508D2AF0208B3E542
:10044000096007E508D2AF0240BBE508D2AF020859
:10045000BB0002045174F512053A890A740B1206A6
:1004600089E0FEA3E0FF740F550AF50C750D0074CA
:100470000B780C12062BEA2400F8EB3480F9E82400
:1004800000E9350DF9E5C7FBA2AFE433F50BC2AFC8
:10049000E50AC4540FFAE5C754F84AF5C7EE4F60B1
:1004A0002888828983E08C828D83F088828983A367
:1004B000A882A9838C828D83A3AC82AD83EE24FFB6
:1004C0001EEF34FFFFEE4F70D88BC7E50BA2E09212
:1004D000AF7F040205A074F712053A740912068969
:1004E000E0F50AA3E0F50BED900980F0ECA3F0A392
:1004F0007462F0A37473F0A3E0541FF0E50A333381
:1005000054FCA3F07406780A12064FE50A90098499
:10051000F09009867412F0A37442F053D1FE75D6A0
:1005200001EA906271F0EBA3F0906270E0D2E1F02A
:10053000E0A2E740FB7F020205A0251AC582C0E0C9
:10054000E51B34FFC583C0E0E51AC3958224F9108A
:10055000AF0885831B85821A800885831B85821AD4
:10056000D2AFCEF0A3E520F0A3780AE608F0A3DE30
:10057000FAEFF0A3E58124FBF8E608F0A3E608F023
:10058000A30808E608F0A3E608F0A315811581D0BA
:10059000E0FED0E0F815811581E8C0E0EEC0E02271
:1005A000851B83851A82E0A3FEE0A3F520780AE08C
:1005B000A3F608DFFAE0A3FFE0A3C0E0E0A3C0E0F9
:1005C000E0A3C0E0E0A3C0E010AF0885821A8583F5
:1005D0001B800885821A85831BD2AFD083D08222EC
:1005E000251AF58210AF08F51A4002151B8008F590
:1005F0001A4002151BD2AF851B8322C0D0251A10CA
:10060000AF08F51A5002051B8008F51A5002051BA9
:10061000D2AFD0D022251A10AF08F51A4002151B10
:100620008008F51A4002151BD2AF22700422600D1B
:1006300018C6C333C608C633C6D5E0F41822740200
:100640008000C0E0F4041205E0D0E012067C2260D5
:100650000C08C6C313C618C613C6D5E0F42212068A
:1006600098B9000302066712022412069375D0009F
:1006700075813F751A80751B0102065ECAC0E0E6EF
:10068000F0A308DAFAD0E0FA22251AF582E4351B45
:10069000F5832200000080FB790122FFFFFFFFFFAE
:1006A000FFFFFFFFFFFFFFFFFFFFFFFFFFFFFFFF5A
:1006B000FFFFFFFFFFFFFFFFFFFFFFFFFFFFFFFF4A
:1006C000FFFFFFFFFFFFFFFFFFFFFFFFFFFFFFFF3A
:1006D000FFFFFFFFFFFFFFFFFFFFFFFFFFFFFFFF2A
:1006E000FFFFFFFFFFFFFFFFFFFFFFFFFFFFFFFF1A
:1006F000FFFFFFFFFFFFFFFFFFFFFFFFFFFFFFFF0A
:10070000FFFFFFFFFFFFFFFFFFFFFFFFFFFFFFFFF9
:10071000FFFFFFFFFFFFFFFFFFFFFFFFFFFFFFFFE9
:10072000FFFFFFFFFFFFFFFFFFFFFFFFFFFFFFFFD9
:10073000FFFFFFFFFFFFFFFFFFFFFFFFFFFFFFFFC9
:10074000FFFFFFFFFFFFFFFFFFFFFFFFFFFFFFFFB9
:10075000FFFFFFFFFFFFFFFFFFFFFFFFFFFFFFFFA9
:10076000FFFFFFFFFFFFFFFFFFFFFFFFFFFFFFFF99
:10077000FFFFFFFFFFFFFFFFFFFFFFFFFFFFFFFF89
:10078000FFFFFFFFFFFFFFFFFFFFFFFFFFFFFFFF79
:10079000FFFFFFFFFFFFFFFFFFFFFFFFFFFFFFFF69
:1007A000FFFFFFFFFFFFFFFFFFFFFFFFFFFFFFFF59
:1007B000FFFFFFFFFFFFFFFFFFFFFFFFFFFFFFFF49
:1007C000FFFFFFFFFFFFFFFFFFFFFFFFFFFFFFFF39
:1007D000FFFFFFFFFFFFFFFFFFFFFFFFFFFFFFFF29
:1007E000FFFFFFFFFFFFFFFFFFFFFFFFFFFFFFFF19
:1007F000FFFFFFFFFFFFFFFFFFFFFFFFFFFFFFFF09
:1008000073CA73CA0800007C41414141FFFFFFFFEA
:10081000FFFFFFFFFFFFFFFFFFFFFFFFFFFFFFFFE8
:10082000000102030405060708090A0BFFFFFFFF8A
:10083000020F73021A3FFFFFFFFFFFFFFFFFFFFFE3
:10084000FFFFFFFFFFFFFFFFFFFFFFFFFFFFFFFFB8
:10085000FFFFFFFFFFFFFFFFFFFFFF0221A4FFFFDE
:10086000FFFFFF022188FFFFFFFFFFFFFFFFFFFFEA
:10087000FFFFFFFFFFFFFFFFFFFFFFFFFFFFFFFF88
:10088000FFFFFF021AB2FFFFFFFFFFFFFFFFFFFFA7
:10089000FFFFFFFFFFFFFFFFFFFFFF02213BFFFF07
:1008A000FFFFFFFFFFFFFFFFFFFFFF022161FFFFD1
:1008B000FFFFFF0218F301FF0000B400002800282A
:1008C00000283075A000A000A000A00000080008CB
:1008D000E001F000100010001000100010001000E7
:1008E00050005000500010001000D0070000000021
:1008F00000000F0001000500307507001000010026
:1009000081FF0000FFBE23DC23C423FF0202020894
:10091000025000A0000000E8030255840100002FEF
:10092000840251840100006C0A024B84010000B172
:10093000020251840100006D0A024984010000C7CF
:10094000020251840100006E0A024784010000C9BE
:10095000020251840100006F0A024584080000CAA7
:1009600002025184010000700A02438401000071F8
:100970000AFF0100FF200255840100002C8402516F
:1009800084010000D50A0241840000000000024DED
:100990008403000017039A299A299A299A299A29E7
:1009A0009A299A299A299A299A299A299A299A292F
:1009B000282C402C222CFFFF0A0953656E736F729E
:1009C000546167051250002003020A000201055419
:1009D0004920424C452053656E736F722054616705
:1009E00000D007E803382E00003E2E442E4A2E5633
:1009F0002E502E5C2E622E682E6E2E124163636581
:100A00006C2E2044617461000A416363656C2E2082
:100A1000436F6E662E000A4163632E205065726933
:100A20006F64000255840100003B84025184010080
:100A3000005B0B10F5800100008D07024D84030060
:100A4000009007024F840100005C0B0251840100FA
:100A500000680B10E5800300009607024F84010038
:100A600000690B025184010000760B10D580030051
:100A7000009707024F84010000770B124261726FEA
:100A80006D65746572204461746100024261726F29
:100A90006D657465722043616C692E000A42617253
:100AA0006F6D6574657220436F6E662E000255840B
:100AB0000100001A84025184010000DB0B107581D3
:100AC0000100009A07024D840300009E07024F8434
:100AD000010000DC0B025184010000FC0B10B58208
:100AE000030000BA07024F84010000FD0B0251848D
:100AF000010000EB0B109582010000A407024D8459
:100B0000030000B407024F84010000EC0B12436F96
:100B10006E6E2E20506172616D730008436F6E6EB1
:100B20002E20506172616D73205265710008446916
:100B300073636F6E6E656374205265710002558435
:100B400001000035840251840100006D0C10958174
:100B5000010000BD07024D84030000C307024F845B
:100B60000100006E0C0251840100007B0C10D58145
:100B7000020000C907024F840100007C0C0251846E
:100B80000100008D0C101582020000D107024F8475
:100B90000100008E0C020202020202020202010D9A
:100BA00000000010010255840100002684025184D7
:100BB000010000F50C026F84010000D2070251848D
:100BC000010000F60C026D8401000058830251847C
:100BD000010000F70C026B84010000538302518472
:100BE000010000F90C026984010000B38002518405
:100BF000010000FA0C0267840100004E8302518458
:100C0000010000F80C0261840100005D8302518440
:100C1000010000FB0C025B84010000A180025184F2
:100C2000010000FC0C025F84010000C582025184B7
:100C3000010000FD0C025D84010000FE0C01E803D0
:100C4000053F10124779726F2E2044617461000ACB
:100C50004779726F2E20436F6E662E000255840115
:100C600000003E84025184010000A30D1075820132
:100C700000008808024D840300008E08024F8401A2
:100C80000000A40D025184010000AF0D1045820345
:100C900000009408024F84010000B00D03800000A2
:100CA00080700061801248756D69642E2044617403
:100CB00061000A48756D69642E20436F6E662E00D0
:100CC0000255840100003884025184010000050EA1
:100CD00010F5810100001E09024D84030000220965
:100CE000024F84010000060E025184010000120E22
:100CF00010E5810300002809024F84010000130E53
:100D00001249522054656D702E2044617461000AAE
:100D100049522054656D702E20436F6E662E00027E
:100D200055840100001D84025184010000600E10F2
:100D3000B5810100002B09024D840300002F090238
:100D40004F84010000610E0251840100006F0E10FB
:100D5000A5810300003509024F84010000700E12C6
:100D60004D61672E2044617461000A4D61672E2039
:100D7000436F6E662E000A4D61672E2050657269C2
:100D80006F64000255840100002084025184010038
:100D900000BF0E1065810100003809024D84030078
:100DA000003E09024F84010000C00E025184010080
:100DB00000CA0E1055810300004409024F8401004F
:100DC00000CB0E025184010000D60E1045810300B5
:100DD000004509024F84010000D70E1C0255840112
:100DE000000023840251840100003B0F1030800278
:100DF00000004609024D840300004809024F8401A7
:100E00000000D3820251840100003B0F1040800299
:100E100000004709024D840300004E09024F84017F
:100E20000000E082FFFFFF000130750302010600B1
:100E300000000000000000000000000000000000B2
:100E40000000000000000000000000FFFF0600801E
:100E50000CE803104B65792050726573732053744E
:100E600061746500025584010000298402518401E7
:100E70000000B30F026584000000050A024D8403E0
:100E80000000060A024F84010000B40F025465738B
:100E9000742044617461000A5465737420436F6E5A
:100EA00066696700025584010000328402518401A2
:100EB0000000EC0F1035820300000E0A024F84017F
:100EC0000000ED0F025184010000F70F106582034E
:100ED0000000160A024F84010000F80FE5C754F81D
:100EE0004405F5C779012200000080FB120EDCB931
:100EF0000003020F5DE479217808B800028004F74E
:100F000009D8FCE479297802B800028004F709D8EE
:100F1000FCE4900280789879088002F0A3D8FCD98C
:100F2000FA781C9008B67A01BA00028007E493A30D
:100F3000F608DAF9900A17AA82AB839008B77826E8
:100F400079078015E493A3AC82AD838A828B83F00A
:100F5000A3AA82AB838C828D83D8E9D9E775826F8F
:100F60007583D47407120F857582E775830E74003C
:100F7000120F8575D00075813F751A80751B02753B
:100F80009F00020EECC09FF59FE473D09F22D08398
:100F9000D082C09FE493C0E0740193C0E0740293D8
:100FA000F59F22E066701008A3E066700A08A3E0CF
:100FB00066700408A3E06622C3E7960809E796086E
:100FC00009E7960809E79622C3E09608A3E0960889
:100FD000A3E09608A3E09622C00AC3E096F50A08AB
:100FE000A3E096420A08A3E096420A08A3E09645C9
:100FF0000A7001D3D00A22080808EAC0E0EBC0E07A
:1010000086F0E7A4FA180986F0E7A42AFA180986F8
:10101000F0E7A42AFA180986F0E7A42AFA1986F05C
:10102000E7A4FBE5F02AFA190886F0E7A42BFBE514
:10103000F03AFA190886F0E7A42BFBE5F03AFA1823
:10104000180986F0E7A4C5F02BFBE43AFA1908E783
:10105000C5F0C6A426F6E5F03BFBE43AFA1886F0A4
:10106000E7A4F6E5F00826F6E43B08F6E43A08F6CD
:10107000D0E0FBD0E0FA22E4CFC0E0E4CEC0E0E470
:10108000CDC0E0E4CCC0E075F020C3E633F608E65E
:1010900033F608E633F608E633F6181818EC33FC96
:1010A000ED33FDEE33FEEF33FFC3EC9709ED970907
:1010B000EE9709EF97191919400FFFEC97FC09ED0E
:1010C00097FD09EE97FE191906D5F0BEECF709ED6C
:1010D000F709EEF709EFF7191919D0E0FCD0E0FD98
:1010E000D0E0FED0E0FF226016080808C6C313C691
:1010F00018C613C618C613C618C613C6D5E0EA220A
:101100007009080808226016181818C6C333C608E4
:10111000C633C608C633C608C633C6D5E0EA22E6DB
:1011200027F60809E637F60809E637F60809E6372C
:10113000F622E026F608A3E036F608A3E036F60825
:10114000A3E036F622E026F008A3E036F008A3E09C
:1011500036F008A3E036F022C3E697F60809E697D2
:10116000F60809E697F60809E697F622C3E096F036
:1011700008A3E096F008A3E096F008A3E096F0221A
:10118000E056F608A3E056F608A3E056F608A3E0FA
:1011900056F622E056F008A3E056F008A3E056F019
:1011A00008A3E056F022E0F608A3E0F608A3E0F674
:1011B00008A3E0F622E6F008A3E6F008A3E6F008AC
:1011C000A3E6F022E0FAA3E0FBA3E0FCA3E0FD220B
:1011D000EAF0A3EBF0A3ECF0A3EDF022CAC0E0E646
:1011E000F0A308DAFAD0E0FA22CAC0E0E0A3C58290
:1011F000CCC582C583CDC583F0A3C582CCC582C5CD
:1012000083CDC583DAE6D0E0CA22C3E498F8E49936
:10121000F912124B8026C3E49AFAE49BFBE920E71B
:10122000E912124BE498F8E499F922C3E498F8E43F
:1012300099F912124BE498F8E499F9C3E49AFAE4A4
:101240009BFB22EB20E7CFE920E7E0B90010BB00D1
:1012500008E88AF084F8AAF022E4FBC8FA22EB70CE
:10126000227B10C833C8C933C9335007C39AC3DBC4
:10127000F280069A50012ADBEAC833F4C8C933F475
:10128000C9FA2275F008E4C833C8C933C933C99A0A
:10129000C99B5004C92AC93BD5F0ECFBC833F4C83C
:1012A000E4C9FA22600D08C6A2E713C618C613C621
:1012B000D5E0F322600C08C6C313C618C613C6D502
:1012C000E0F422700422600D18C6C333C608C6338A
:1012D000C6D5E0F41822251A10AF08F51A400215F9
:1012E0001B8008F51A4002151BD2AF22C0D0251A68
:1012F00010AF08F51A5002051B8008F51A500205B8
:101300001BD2AFD0D022251AF58210AF08F51A40B3
:1013100002151B8008F51A4002151BD2AF851B83EE
:1013200022251AF582E4351BF58322E473251AC5BC
:1013300082C0E0E51B34FFC583C0E0E51AC3958297
:1013400024F810AF0885831B85821A800885831BCB
:1013500085821AD2AFCEF0A3E520F0A3780AE60882
:10136000F0A3DEFAEFF0A3E58124FAF8E608F0A393
:10137000E608F0A3E608F0A30808E608F0A3E608EC
:10138000F0A315811581D0E0FED0E0F8158115811C
:101390001581E8C0E0EEC0E022251AC582C0E0E574
:1013A0001B34FFC583C0E0E51AC3958224F910AF52
:1013B0000885831B85821A800885831B85821AD243
:1013C000AFCEF0A3E520F0A3780AE608F0A3DEFA9A
:1013D000EFF0A3E58124FBF8E608F0A3E608F0A30C
:1013E0000808E608F0A3E608F0A315811581D0E00F
:1013F000FED0E0F815811581E8C0E0EEC0E022855E
:101400001B83851A82E0A3FEE0A3F520780AE0A3FF
:10141000F608DFFAE0A3FFE0A3C0E0E0A3C0E0E04D
:10142000A3C0E0E0A3C0E0E0A3C0E010AF08858265
:101430001A85831B800885821A85831BD2AFD083CF
:10144000D082020F8B851B83851A82E0A3FEE0A366
:10145000F520780AE0A3F608DFFAE0A3FFE0A3C0D6
:10146000E0E0A3C0E0E0A3C0E0E0A3C0E010AF086C
:1014700085821A85831B800885821A85831BD2AFDB
:10148000D083D08222C0D0251AC582C0E0E51B34AB
:10149000FFC583C0E0E51AC3958224F310AF088529
:1014A000831B85821A800885831B85821AD2AFC868
:1014B000F0A3E9F0A3EAF0A3EBF0A3790AE709F0BF
:1014C000A3D8FAECF0A3EDF0A3EEF0A3EFF0A3D0D5
:1014D000E0F0A3D0E0F0A3D0E0F0A3E520F0A3E596
:1014E000F0F0A322851B83851A82E0C0E0A3E0F917
:1014F000A3E0FAA3E0FBA3780AE0F608A3DFFAE092
:10150000FCA3E0FDA3E0FEA3E0FFA3E0C0E0A3E0B6
:10151000C0E0A3E0F5D0A3E0F520A3E0A3F5F01030
:10152000AF0885831B85821A800885831B85821AF4
:10153000D2AFD082D083D0E0F8D0E03274048006FD
:10154000740280027401C0E0F404121306D0E012A9
:1015500011DC227404800474028000CCC0E0EDC071
:10156000E0E51AC39CCCAD1B50011D10AF068C1AD0
:101570008D1B80068C1A8D1BD2AF1211E9D0E0FDB5
:10158000D0E0FC22D083D082E9C0E0E493A3C386FC
:10159000F0C5F095F0F908E493A386F0C5F095F056
:1015A000700BE493A3C3994005E9048002A3E4759A
:1015B000F002A42582F582E5F03583F583D0E0F9C9
:1015C000E493A3C0E0E493C0E022D083D082ECC0D7
:1015D000E0EDC0E0E493A3FCE493A3FDED4C600DCB
:1015E000121616EC24FFFCED34FFFD80EFE493A30C
:1015F000FCE493A3FDED4C600D121655EC24FFFCAA
:10160000ED34FFFD80EFD0E0FDD0E0FCE493A3C01B
:10161000E0E493C0E022C0E0C3E493960874019331
:101620009618400FE493667008087401936618706A
:10163000007019A3A3C3E49396087401939618A3AA
:10164000A3400DD0E0D0E0D0E0021606A3A3A3A3F0
:10165000A3A3D0E022C0E0C0F088F0E49366700855
:101660000874019366187000A8F0A3A3700BD0F063
:10167000D0E0D0E0D0E0021606A3A3D0F0D0E02264
:1016800074F5121399EAFEEBFFEE2434F8EF340000
:10169000F9880A890BEE2435F582EF3400F583E0F2
:1016A000F8EE2437F582EF3400F583E0F50CEC8595
:1016B0000CF0A4FCAAF0850CF0EDA42AFDE82CF8AF
:1016C000E43DF97A257B0012124BEA850A82850BEC
:1016D00083F05407F87401B800028004C333D8FCC7
:1016E000C0E0E0131313541FF8EE28F8EF3400F9AC
:1016F000E8245DF582E93400F583D0E0F8E0586035
:1017000008EE2434F582EF801EEE2436F582EF34A5
:1017100000F583E0F5F0EA84A8F0EE28F8EF340055
:10172000F9E82438F582E93400F583E0F97F040212
:10173000144574F5121399EAFEEBFFEE2434F5829A
:10174000EF3400F583E0C0E0EE2435F582EF34009D
:10175000F583D0E0F08E828F83A3A3A3A3A3A3A3DA
:10176000C082C0838E828F83A3A3A3A3A3E0F8A328
:10177000E0F9D083D082E0C398F50AA3E099F50B95
:10178000EE2480F582EF3400F583E064017069EEA9
:101790002481F582EF3400F583E0F8A3E0F98E822E
:1017A0008F83A3A3A3A3A3A3A3E0FCA3E0FD8E8246
:1017B0008F83A3A3A3A3A3E0FAA3E0FBC3EA9CEB5C
:1017C0009D5027C3EC98ED99402EC3EA98EB9950B1
:1017D000277CFC7D04EEFAEFFB1228F8EE2480F55E
:1017E00082EF3400F583E4F0800EC3EA98EB994071
:1017F000E0C3EC98ED9950D9EE2434F8EF3400F9B9
:10180000E8FCE9FDEE2435F582EF3400F583E0F8DD
:10181000EE2437F582EF3400F583E0F50CE50A8518
:101820000CF0A4F50AAAF0850CF0E50BA42AF50B40
:10183000E8250AF8E4350BF97A257B0012124BEA09
:101840008C828D83F05407F87401B800028004C3C1
:1018500033D8FCC0E0E0131313541FF8EE28F8EF60
:101860003400F9E8245DF582E93400F583D0E0F82E
:10187000E0586008EE2434F582EF801EEE2436F541
:1018800082EF3400F583E0F5F0EA84A8F0EE28F862
:10189000EF3400F9E82438F582E93400F583E0F903
:1018A00012212D02172DC082C083851A82851B83C9
:1018B000E0F8A3E0F9C3EA9CEB9D5012C3EC98ED6D
:1018C000994019C3EA98EB99501279018010C3EA44
:1018D00098EB9940F5C3EC98ED9950EE7900D083E0
:1018E000D08222EAC39CFAEB9DFB22FF85218785EB
:1018F00022C622C0E0C0D0E8C0E0E9C0E0EAC0E013
:10190000EBC0E0ECC0E0EDC0E0C00AC00BC00CC012
:101910000DC082C083C0F0759B00906182E0A2E69A
:1019200040030219D1E591A2E640030219D1759155
:10193000BF9003C1E064057008122A30122A3C806F
:1019400003122A36752100122A96E99003C2F07913
:1019500000122A8A1228747A017B009003C0E0F9F1
:10196000122D5A907803E064426003021A1A90051F
:101970005EE014F06003021A1AC2AF12197E0078FA
:101980002AD0E0F618D0E0F6E59F5407F9700590EC
:1019900083E680039083EA780A1211A6E9C4C0E0C6
:1019A0007829E6550AF50A08E6550BF50B740B780D
:1019B0000A1212B4D0E0250AF8906270E0A2E74063
:1019C000F8E8C333906272F0906270E0D2E0F08089
:1019D00049E0A2E55024E591A2E5501E7591DF9003
:1019E00003C1E0640D70139003E3E004F064287019
:1019F00002E4F07A00E0F9122B08906181E0A2E3A2
:101A00005009E5E9A2E3500375E9F7A3E0A2E75026
:101A100009E591A2E7500375917FD0F0D083D08281
:101A2000D00DD00CD00BD00AD0E0FDD0E0FCD0E03F
:101A3000FBD0E0FAD0E0F9D0E0F8D0D0D0E032C06E
:101A4000E0C0D0C082C083906183E0A2E05009E58D
:101A5000BFA2E0500375BFFEE0A2E15009E5BFA2BE
:101A6000E1500375BFFDE0A2E25009E5BFA2E250DC
:101A70000375BFFBE0A2E35009E5BFA2E350037585
:101A8000BFF7E0A2E45009E5BFA2E4500375BFEF41
:101A9000E0A2E55009E5BFA2E5500375BFDFE0A273
:101AA000E65009E5BFA2E6500375BFBFD083D082E0
:101AB0008088C0E0C0D0E8C0E0E9C0E0EAC0E0EB68
:101AC000C0E0ECC0E0EDC0E0C0F0E5A7A2E6500F3A
:101AD000E5A1A2E6500953A7BF75A1BF121B17E5E8
:101AE000A7A2E5500CE5A1A2E5500653A7DF75A11A
:101AF000DFE5A7A2E15009E5A1A2E1500375A1FD30
:101B0000E5A7A2E2500CE5A1A2E2500653A7FB759F
:101B1000A1FBD0F0021A2874F812139975210190D4
:101B200003C1E0640670151229C48A828B83A3A3C3
:101B3000A3A3A3A3E0FAA3E0FB122A1EA2AFE433FF
:101B4000FED2AF9003C7E0640170187A207B00904A
:101B500003C0E0F9122DE47A207B009003C0E0F985
:101B6000122D60906182E0D2E6F090055DE0602188
:101B700085C62280169003C6E064017008E5C6544D
:101B8000F84405F5C653BEFC1218EC7401652160DB
:101B9000E4EEA2E092AF7F01021445FF8E238F2472
:101BA000858228858327851A82851B83E0CEA3E062
:101BB000CF852882852783EBC9EAC8EDCBECCA75AF
:101BC000F010C3E833C8E933C9EA33CAEB33CBC3F7
:101BD000EA9EF526EB9FF525B35004AB25AA26EC2B
:101BE00033CCED33CDD5F0DAAE23AF242274EB1233
:101BF000139974FA1212D68A0A8B0B8C168D1790D1
:101C000003C1E024F7C39405500690840E021D4FD3
:101C10001229C48A0C8B0DAE0CAF0DEE4F7003026F
:101C20001D4CAC0AAD0B851A82851B83AA82AB833F
:101C3000122A4E8E828F83A3A3780A1211A6908354
:101C4000CA780A121180851A82851B83780E1211B8
:101C5000A69083CA780E121180780A790E120FB8F6
:101C6000501F780A790E121158908372780A120F59
:101C7000D84047850A12850B13850C14850D1580F5
:101C800041850E12850F1385101485111578127970
:101C90000A1211589083727812120FD8501C7512C4
:101CA000007513007514007515017812790E121164
:101CB000587812790A12111F800890840E78121237
:101CC00011A674097812121100908402780A121178
:101CD000A67812790A1210778E828F83A3A3A3A30A
:101CE000A3A3E0F8A3E0F97AD07B0312124B880A91
:101CF000890BE4F50CF50D7812790A12111F7404A2
:101D0000121321E0F8A3E0F97AD07B0312124BE81A
:101D1000FA8A0AE4F50B7812790A120FB85007789C
:101D200012790A1211589003C1E06408600AE06455
:101D3000066005E06405701C9083A67812120FD827
:101D4000501290840A781212113280089083BA7867
:101D5000121211A685168285178378121211B57496
:101D6000061212EC7F0E02144574F7121399122A10
:101D70006090055BE064017010906245E4F0A3F0B0
:101D800053F4F343FE0C5390F3122A0CE5C654802F
:101D90004449F5C6E59E547F644970F890618574A6
:101DA0000FF0900559E0F47002A3E0604E90055AE0
:101DB000E0600814601B14602E8040750A01750BEA
:101DC00000900559E0780A1212C3E50AF4528080A7
:101DD0002A750A01750B00900559E0780A1212C3A2
:101DE000E50AF452908014750A01750B00900559AC
:101DF000E0780A1212C3E50AF452A079007F0202C9
:101E0000144574F7121399E9FEEAFF74016E700C21
:101E10007A807B009003C0E0F9122D5A903364E47D
:101E200093F46008E493F9122868800953C680E5AA
:101E30009E547F70FA122A1290055BE064017003D1
:101E4000122880900559E0F47002A3E0604B9005E1
:101E50005AE0600814601A14602C803D750A017500
:101E60000B00900559E0780A1212C3E50A428080FF
:101E700028750A01750B00900559E0780A1212C303
:101E8000E50A42908013750A01750B00900559E030
:101E9000780A1212C3E50A42A0122A601229C48AE3
:101EA0000A8B0BA80AA90BE8496015E5E170FCE86C
:101EB0002414F582E93400F583E0F46003E0F5E1F1
:101EC00074016F700A7A019003C0E0F9122DAE021E
:101ED0001DFD74F11213998A0A8B0B8C0C8D0D74F5
:101EE0000F121321780E1211A69083CA780A1211CC
:101EF000809083CA780E121180780A790E120FB87A
:101F00005015780A790E121158908372780A120FC0
:101F1000D8401579018013780E790A1211589083F0
:101F200072780E120FD840EB79007F0802144574C6
:101F3000ED1213998A0A8B0B8C0C8D0D74131213EE
:101F400021780E1211A69083CA780A12118090830C
:101F5000CA780E121180780E790A120FB8401178E3
:101F60000A790E121158AA0AAB0BAC0CAD0D8022E7
:101F70007512007513007514007515017812790E2D
:101F80001211587812790A12111FAA12AB13AC144D
:101F9000AD157F0C0214459083CA780A1211A68AE7
:101FA000828B83780A1211937F0402144574F51210
:101FB00013998C828D83780A1211A68A828B83787A
:101FC0000A12116CEA2404F8EB3400F98C828D8338
:101FD000A3A3A3A3E0FCA3E0FD88828983C3E09CC4
:101FE000F0A3E09DF088828983C3E09420A3E0946D
:101FF0004E40229083B2780A1211A68A828B83788F
:102000000A1211458A828B83A3A3A3A3E02420F0A4
:10201000A3E0344EF0808074F5121399E9FE900528
:1020200013E0FAA3E0FBEEC333F8E433F974252898
:10203000F582748239F583E02AF50AA3E03BF50BBB
:10204000780A1215409083C21211C4121B9C7402AC
:102050001212EC8A0A8B0B8C0C8D0D7410780A12FC
:1020600010E7AA0AAB0B7F0402144574F11213990E
:102070008A0E8B0F8C108D11740F121321E0FAA3AE
:10208000E0FB7411121321E0F50AA3E0F50B7413C1
:10209000121321E0FEA3E0FF780A121540EA2401A2
:1020A000F50AEB3400F50BE4F50CF50D780E790A22
:1020B000120FF79083AE780A1211A6780E790A12E1
:1020C0000FF7AA0EAB0FAC10AD11121B9C740212CD
:1020D00012EC8B0BEA450B60047A0180027A00EC6B
:1020E0002AFCED3400FDECF8EDF97A717B02121256
:1020F0004B880A890BE4F50CF50D8E828F83780AE4
:102100001211B5ECF8EDF97A717B0212124B8A0AC2
:102110008B0B7405780A1212C38E828F83A3A3A33C
:10212000A3E50AF0A3E50BF07F08021445C082C0C6
:1021300083E9906000F0D083D08222C0E074F21274
:102140001485A2AFE433FED2AFE589A2E0500312BA
:1021500030F0758900C2C5EEA2E092AF7F01021493
:10216000E4C0E074F2121485A2AFE433FED2AFE50E
:102170008AA2E64006E58AA2E750031230F0758A8B
:1021800000758A00C2EB80CFC0E0C0D0E8C0E0E5B7
:10219000A8D2AF758B00C2E8A2E792AFD0E0F8D02A
:1021A000D0D0E032C0E0C0D0E8C0E0E5A8D2AFC2F5
:1021B000C7751C00A2E792AFD0E0F8D0D0D0E032D3
:1021C000120F8EA0C307120F8EB7C307120F8EE631
:1021D000C307120F8E1FC407120F8E47C407120FBA
:1021E0008E75C407120F8E8CC407120F8EA3C407FE
:1021F000120F8EB9C407120F8EE0C407120F8EF3B0
:10220000C407120F8E09C507120F8E1CC507120FC7
:102210008E41C507120F8E21B406120F8E20B5060F
:10222000120F8E55B506120F8E76B506120F8E86DA
:10223000B506120F8EA7B506120F8EB3B606120F93
:102240008E80B706120F8EF3B706120F8E79B8067E
:10225000120F8EBCB806120F8EF3B806120F8E79CD
:10226000B906120F8E4BBA06120F8EA9BA06120FBC
:102270008EC1BA06120F8E3BBB06120F8E3EBB06F6
:10228000120F8E41BB06120F8EE8BB06120F8E0096
:10229000BC06120F8E30BC06120F8E50BC06120FF9
:1022A0008E3EBD06120F8EF4BD06120F8E96ED0601
:1022B000120F8EBEED06120F8EECED06120F8E235E
:1022C000EE06120F8E8BEE06120F8ED4EE06120F54
:1022D0008E1FEF06120F8E5DEF06120F8E9AEF061D
:1022E000120F8EC8EF06120F8E6FF006120F8E7946
:1022F000F006120F8E86F006120F8EB9F006120F3E
:102300008E7BF106120F8E87F106120F8E9FF1065B
:10231000120F8EA9F106120F8E1BD307120F8E29F2
:10232000D307120F8E41D307120F8E59D307120F06
:102330008E45BB05120F8EE3BB05120F8E5BBC05ED
:10234000120F8E70BD05120F8EAABD05120F8E538F
:10235000BE05120F8E28BF05120F8E8CC005120FFE
:102360008EE3C005120F8E6AC105120F8E51C20591
:10237000120F8E9EC205120F8E2CC305120F8E50A7
:10238000C305120F8E25C505120F8E66C505120FE7
:102390008E88C505120F8E09C605120F8EF3C6056D
:1023A000120F8EB9C705120F8E16CF06120F8EE8C8
:1023B000CF06120F8E91D006120F8ED4D006120FB8
:1023C0008E61D106120F8EEDD106120F8ECED2067F
:1023D000120F8EFDD206120F8EF9D306120F8E4108
:1023E000D406120F8E43D506120F8E87D506120F14
:1023F0008EADD506120F8E5AFF06120F8EAC8F07C8
:10240000120F8EC28F07120F8EE88F07120F8E10D9
:102410009107120F8E1A9107120F8E739207120FE7
:102420008E739307120F8E70E806120F8EA5E906C1
:10243000120F8ED8E906120F8E22EA06120F8EE0D6
:10244000EB06120F8EE8AB05120F8E4BAC05120F88
:102450008E90AD05120F8EA0AD05120F8EC3AD0587
:10246000120F8E0EAE05120F8EB3AE05120F8EA98F
:10247000AF05120F8E73B005120F8EEBB105120F60
:102480008E2DB205120F8ECBB205120F8E18B3052A
:10249000120F8E3EB305120F8E2CB505120F8E3122
:1024A000B505120F8E12B705120F8E66B705120F03
:1024B0008EC8B705120F8EF0B705120F8E94B805AF
:1024C000120F8E56B905120F8E87B905120F8E8A1C
:1024D000B905120F8ED2B905120F8E14BA05120F5C
:1024E0008E7BBA05120F8E04B407120F8E17B40735
:1024F000120F8E30B407120F8E7BB407120F8E5658
:10250000B507120F8EE5B507120F8E30B607120F02
:102510008E00B004120F8E0CB004120F8E45B00462
:10252000120F8E8AB004120F8E41B104120F8EC7A3
:10253000B104120F8E2CB204120F8E58B204120F77
:102540008E91B204120F8EA5B404120F8E81B604C0
:10255000120F8E6CB804120F8EA3B904120F8E03E3
:10256000BC04120F8EEFBC04120F8E35BE04120F86
:102570008E42BF04120F8E5FBF04120F8E97BF04EE
:10258000120F8EB1BF04120F8E19C004120F8EB33A
:10259000C404120F8E54C504120F8EA5C504120F69
:1025A0008ECCC504120F8E1AC604120F8E38C604C4
:1025B000120F8E8CC604120F8E65C704120F8EEC9C
:1025C000C804120F8E74C904120F8EBEDC06120FDF
:1025D0008EC8DC06120F8E93DD06120F8ED7DD0635
:1025E000120F8EFDDD06120F8E49DE06120F8E8150
:1025F000DE06120F8EAADE06120F8EE7DF06120F1E
:102600008E14E006120F8E41E006120F8E8CE0064B
:10261000120F8EA7E006120F8EF2E006120F8E2C1C
:10262000E106120F8E66E106120F8EBBE106120F55
:102630008E26E206120F8E6FE206120F8E99E206C8
:10264000120F8EBEE206120F8EF38307120F8EBD9D
:102650008407120F8EA08507120F8E168607120FA1
:102660008E588607120F8E858707120F8E683300EB
:10267000120F8E913300120F8EAA3300120F8EEFBD
:102680003400120F8ECD3500120F8EEC3500120F74
:102690008E793600120F8EBC3600120F8E0938006C
:1026A000120F8EA83800120F8E273B00120F8EBE1D
:1026B0003B00120F8E923C00120F8E743D00120FE1
:1026C0008EE03E00120F8E733F00120F8E16CF0762
:1026D000120F8E7FCF07120F8ED3CF07120F8EFAF5
:1026E000CF07120F8EB9F606120F8E26F706120FBD
:1026F0008E71F706120F8E66F806120F8E62F906BB
:10270000120F8E4CFA06120F8E5FBE06120F8EA1AC
:10271000BE06120F8E7BBF06120F8E54C006120F1C
:102720008E4FC106120F8E2EC206120F8E9AC2064F
:10273000120F8E61C306120F8ECCC306120F8E339A
:10274000C406120F8E5EC406120F8ECFC406120F7F
:102750008E62C506120F8ECBC506120F8EE0C5061F
:10276000120F8E28C606120F8E41C606120F8EA6B5
:10277000C606120F8EA9C606120F8ED3AB07120F14
:102780008EFBAB07120F8E39AC07120F8EF7AC071A
:10279000120F8E62AD07120F8E7EAD07120F8EA63E
:1027A000AD07120F8ED6AD07120F8EE5AD07120FD3
:1027B0008E5FAE07120F8E85AE07120F8E6CD80596
:1027C000120F8E49DA05120F8E44DC05120F8E1798
:1027D000DD05120F8E62DD05120F8EADDD05120FC5
:1027E0008ECBDD05120F8E0DDE05120F8E28DE0555
:1027F000120F8E74DE05120F8EAEDE05120F8ED113
:10280000DE05120F8E1EDF05120F8E91DF05120FEF
:102810008EA3E105120F8E4DE305120F8E9DE30589
:10282000120F8E02E505120F8E58E505120F8EC6A7
:10283000E505120F8E11E605120F8E3BE605120F0D
:102840008EB0A706120F8EDBA706120F8EC2AE0641
:10285000120F8EE6B006120F8EA1B206120F8EFE78
:10286000B306120F8EDBC904120F8E72CA04120F48
:102870008E9FCA04120F8EE5CA04120F8E24CC0458
:10288000120F8EBBCD04120F8E10CE04120F8E8548
:10289000CE04120F8EB4CF04120F8E0FD104120F7C
:1028A0008E11D204120F8E6ED304120F8E87D304B2
:1028B000120F8EE4D304120F8EC6D404120F8EF9B9
:1028C000D404120F8E69D504120F8EE3D504120FB3
:1028D0008E32D604120F8EFED604120F8E03D80449
:1028E000120F8EE2D804120F8E6DD904120F8EDBF8
:1028F000D904120F8E4FDA04120F8E78DA04120FF9
:102900008E37DB04120F8EB1DC04120F8ECEDC0486
:10291000120F8EEDDC04120F8E7EDD04120F8EA3DB
:10292000DD04120F8ECBDD04120F8E46DE04120F73
:102930008EA0DE04120F8EF4DF04120F8EB1E004BD
:10294000120F8E84E104120F8E66E605120F8EB60A
:10295000E605120F8EC2E605120F8E9FE705120FD5
:102960008ECFE705120F8E07E805120F8E86E80559
:10297000120F8EBEE805120F8E10E905120F8E4D54
:10298000E905120F8E72EB05120F8E9EED05120FE8
:102990008E99EF05120F8E74F105120F8EEA3F002B
:1029A000120F8E379805120F8E819805120F8E60C8
:1029B0009E05120F8EE19F05120F8E40A605120F85
:1029C0008E3BA705120F8E78A705120F8E9BA705C9
:1029D000120F8EDDA705120F8EE6A705120F8EF0DF
:1029E000A705120F8EDCA805120F8ED0A905120FB5
:1029F0008EB2E104120F8E2AEC04120F8E30EC041A
:102A0000120F8E3CF304120F8E7D9307120F8E135C
:102A10009407120F8E299407120F8EA39407120F9A
:102A20008EF99407120F8E379507120F8E94950723
:102A3000120F8E119607120F8E1A9607120F8E26FE
:102A40009607120F8E399607120F8E759607120F82
:102A50008E8B9607120F8EEA9607120F8E0EFB06CC
:102A6000120F8E1BFB06120F8E35FB06120F8E7493
:102A7000FB06120F8EB2FB06120F8E17FC06120F0A
:102A80008E2CFC06120F8E37FC06120F8E44FC06AD
:102A9000120F8E5BFC06120F8E69FC06120F8E74ED
:102AA000FC06120F8E80FC06120F8E8FFC06120F92
:102AB0008E9AFC06120F8EBDFC06120F8E66FD0666
:102AC000120F8E76FD06120F8E90FD06120F8EAD40
:102AD000FD06120F8EC9FD06120F8EEEFD06120FB7
:102AE0008EF8FD06120F8E0CFE06120F8E2BFE06C0
:102AF000120F8E8CFE06120F8E92FE06120F8E980B
:102B0000FE06120F8E9EFE06120F8EAAFE06120FF2
:102B10008EDDFE06120F8E058006120F8E87800650
:102B2000120F8E308106120F8E788206120F8E865B
:102B30008406120F8E6C8506120F8EA18506120F69
:102B40008EC38506120F8E6C8606120F8E3C880689
:102B5000120F8E658806120F8EDD8806120F8E0FFB
:102B60008906120F8E1C8906120F8E678906120FB6
:102B70008E8B8906120F8EDC8B06120F8EE68C066A
:102B8000120F8E428D06120F8EEEC905120F8EFFA8
:102B9000CA05120F8EE3CB05120F8EEDCB05120F77
:102BA0008E0FCC05120F8E1BCC05120F8EBFCD05DC
:102BB000120F8EECCD05120F8E02CF05120F8E571D
:102BC000CF05120F8EA6D005120F8E7BD105120FE6
:102BD0008ED7D105120F8E42D205120F8E77D205F5
:102BE000120F8EBAD205120F8E84D505120F8E9C4D
:102BF000D505120F8E2DD605120F8E3BD605120F5E
:102C00008E88D605120F8E96D605120F8E02D70526
:102C1000120F8E7DD705120F8ED4D705120F8E3569
:102C2000F405120F8E57F405120F8E68F605120F79
:102C30008E27F905120F8E51FA05120F8E0FFB0524
:102C4000120F8EFBFB05120F8EE7C107120F8E0CC1
:102C5000C207120F8E82C207120F8EF7F704120FEF
:102C60008E00F804120F8E09F804120F8EE1F8049A
:102C7000120F8E92FA04120F8EC2FA04120F8EED0A
:102C8000FA04120F8E1DFB04120F8E48FB04120F64
:102C90008E7CFB04120F8EA8FB04120F8EEBFB043C
:102CA000120F8E16FC04120F8E5DFC04120F8EB2F2
:102CB000FC04120F8EF4FC04120F8E4EFD04120F52
:102CC0008E79FD04120F8EC8FD04120F8EF8FD04DC
:102CD000120F8E23FE04120F8E51FE04120F8E74FB
:102CE000FE04120F8EF2D307120F8E1ED407120F9E
:102CF0008E4BD407120F8E55D407120F8E65D40752
:102D0000120F8EE6E206120F8EF0E206120F8E31DF
:102D1000E306120F8E7AE306120F8EB4E306120F4B
:102D20008E0EE406120F8E2FE406120F8E38E40684
:102D3000120F8E8CE406120F8EB5E406120F8ECAA7
:102D4000E406120F8E3CE506120F8ECDE506120F3B
:102D50008E1CE606120F8E48E606120F8ED9E60686
:102D6000120F8E18E706120F8E4DE706120F8E5FB8
:102D7000E706120F8E7EE706120F8E87E706120F08
:102D80008E42E806120F8E2DD107120F8E9BB807C8
:102D9000120F8ED1B807120F8E05B907120F8E557C
:102DA000BA07120F8E53FF05120F8E69FF05120F1F
:102DB0008E73FF05120F8EC3FF05120F8EE4D4072A
:102DC000120F8E3EF206120F8E51F206120F8E1265
:102DD000F306120F8E51F306120F8E6EF306120FCA
:102DE0008EA5F306120F8EF2F306120F8E24F40650
:102DF000120F8E5BF406120F8E4AF606120F8EAC7F
:102E0000F606120F8E26D207120F8E49D207120F26
:102E10008E78D207120F8E90D207120F8ED2D20761
:102E2000120F8E8F8D06120F8E199006120F8E0ABA
:102E30009306120F8E3A9306120F8E229406120FEB
:102E40008E649506120F8EE29506120F8E2F96064F
:102E5000120F8EA99606120F8E1A9706120F8E76F3
:102E60009706120F8ECF9706120F8E529806120FEA
:102E70008EE39806120F8E3E9906120F8EEC99067D
:102E8000120F8EDF8707120F8E248807120F8E4DC8
:102E90008807120F8ED88807120F8E1D8907120F10
:102EA0008E0F8A07120F8E918B07120F8E008007EC
:102EB000120F8E508007120F8E7D8007120F8E3BEF
:102EC0008107120F8E8F8107120F8E8A8207120FD1
:102ED0008EBA8307120F8E67A807120F8EACA80751
:102EE000120F8EC9A807120F8E58A907120F8EA4B1
:102EF000A907120F8E6BAA07120F8EAEAB07120F27
:102F00008ECDAE07120F8EF2AE07120F8E1CAF07DA
:102F1000120F8EA1D507120F8E748405120F8E46E4
:102F20008605120F8EE98705120F8E968805120FFF
:102F30008E1C8905120F8EA98905120F8ED2890564
:102F4000120F8E908D05120F8E008E05120F8E3F80
:102F50008F05120F8E758F05120F8EB58F05120F0C
:102F60008EFF9005120F8E549105120F8EA19105C0
:102F7000120F8EFD9105120F8E7A9205120F8EAFF1
:102F80009205120F8EC79205120F8ED79305120F5E
:102F90008EE79305120F8E8F9505120F8EB1950552
:102FA000120F8EE39505120F8E799705120F8E0D75
:102FB0009805120F8E8AA107120F8EC4A107120F57
:102FC0008EF1A107120F8E69A207120F8EA6A2071B
:102FD000120F8E96A307120F8EC2A407120F8EF344
:102FE000C607120F8E09C707120F8EE0C707120F10
:102FF0008E32CB07120F8E5DCB07120F8E7ACB0766
:10300000120F8EF2CB07120F8E12CC07120F8EE327
:10301000FF06120F8EEEFF06120F8EF3FF06120F41
:103020008EEDFF04120F8E14FF04120F8E24FF0486
:10303000120F8E33FF04120F8EE7FF04120F8E2B38
:10304000D007120F8EB0D007120F8E14D107120FB7
:103050008E7DBC07120F8E91BC07120F8EC8BC0765
:10306000120F8E1EBD07120F8EBBBD07120F8EDE14
:10307000BD07120F8EEABD07120F8E1DBE07120F7D
:103080008E88CC07120F8EBCCC07120F8E64CD0732
:10309000120F8E98CD07120F8E53C507120F8EA2F6
:1030A000C507120F8ED4C507120F8E65C607120F03
:1030B0008EE1C607120F8E8FBA07120F8EA9BA07BC
:1030C000120F8ECEBA07120F8EF9BA07120F8E8B1F
:1030D000BB07120F8EBEBB07120F8ED1C907120F8E
:1030E0008EF9C907120F8E6BCA07120F8E85CA0799
:1030F000120F8EDDCA07120F8E26CB07120F8E29F4
:10310000CB07120F8E969A07120F8EA49A07120FF2
:103110008E1E9B07120F8EF69B07120F8E8C9D073B
:10312000120F8ED19D07120F8EFF9D07120F8E2852
:10313000C007120F8E2EC007120F8E6AC007120F23
:103140008E9EC007120F8EB6C007120F8E3DC107AC
:10315000120F8ED9CD07120F8E24CE07120F8E7F3D
:10316000CE07120F8EEDCE07120F8EF83F00120F12
:103170008E5AB607120F8EF1B707120F8E52B8078C
:10318000120F8E98B807120F8E1A9707120F8E5FC4
:103190009707120F8E8C9707120F8E049807120F45
:1031A0008E419807120F8E319907120F8E5D9A0784
:1031B000120F8E129E07120F8E579E07120F8E84CB
:1031C0009E07120F8EFA9E07120F8E359F07120F61
:1031D0008E25A007120F8E51A107120F8ECA8B07E2
:1031E000120F8E0F8C07120F8E388C07120F8EBFA6
:1031F0008C07120F8EFF8C07120F8EF18D07120FA6
:103200008E738F07120F8E22D606120F8E64D6068B
:10321000120F8E7BD606120F8E42D706120F8E2803
:10322000D806120F8E37DA06120F8EA9DA06120FA1
:103230008E93DB06120F8E7ADC06120F8E66C8079D
:10324000120F8EBDC807120F8E37C907120F8EA638
:10325000C907120F8E98B107120F8EC2B107120F55
:103260008E9AB207120F8E83B307120F8ECDC60649
:10327000120F8E99C706120F8EDAC706120F8E1420
:10328000C806120F8E72C806120F8EC6C806120F1D
:103290008E24C906120F8EB4C906120F8ECACA0632
:1032A000120F8E63CC06120F8E01CD06120F8E68A0
:1032B000CD06120F8E7BCD06120F8E6BCE06120F2F
:1032C0008EB4CE06120F8EAC9A06120F8EEE9D06AD
:1032D000120F8E7F9F06120F8ECF9F06120F8EE663
:1032E0009F06120F8E03A006120F8E83A006120FE8
:1032F0008E0AA206120F8EE1A206120F8E30A606CB
:10330000120F8E1AA706120F8E59BE07120F8E9E2D
:10331000BE07120F8EF2BE07120F8E77BF07120F75
:103320008EEFBF07120F8E43D507120F8EFBA40737
:10333000120F8E40A507120F8E6DA507120F8EE398
:10334000A507120F8E1EA607120F8E06A707120FD3
:103350008E2EA807120F8EF7D507120F8E24D607D0
:1033600031B1E1FFFFFFFFFFC082C08390034574CE
:10337000FFF0A3F0A3F0A3F0A3F0A3749FF0A3E4E5
:10338000F0A37420F090034414F0D083D082020F95
:103390008B74F612132DE9FE123F36600812365D6B
:1033A000741A1236477F020213FF74EE12132D892E
:1033B0000CEAFEEBFF8C0A8D0B900757E0600302CE
:1033C00034BDE9333354FC04F50D7407250DFA7B45
:1033D00000122D2A8A0E8B0FAC0EAD0FEC4D700330
:1033E0000234BD8C828D837401F0A374FFF0EC2451
:1033F00002F8ED3400F9880E890FEC24040808ED7A
:103400003400F9850E82850F83E8F0A3E91234DEDB
:1034100074041234DEA374131234E9E50D1234E996
:10342000A3E50CF0750D000234AD850D8285821088
:10343000751100E510C333FAE433FBEE2AF8EF3BD5
:10344000F988128913740278101212C3A810A911F6
:10345000851282851383E0F510C0101234C7D0E0C6
:10346000F0851282851383A3E0F510C0101234C2D8
:10347000D0E0F0E50A2AFAE50B3BFB8A828B83E079
:10348000F510C0101234C2A3D0E0123866A3E0C019
:10349000E0850E82850F83E028FAA3E0398A82F561
:1034A00083A3A3A3A3A3A3A3D0E0F0050DE50DC3BD
:1034B000950C500302342AECFAED123F2C7F0A02DD
:1034C00013FF1234C7A322850E82850F83E028F5EF
:1034D00010A3E039851082F583A3A3A3A32212349D
:1034E000E2221237C3123D30221234E2A3A3227427
:1034F000EE12132D8A0A8B0B890D8C108D119007FB
:1035000056E07009900758E070030235B990031D2A
:10351000E060030235B9898285820E750F00E924C7
:1035200007FAE43400FB122D2A8A128B13AE12AF75
:1035300013EE4F70030235CA7418650A70047420C4
:10354000650B600C7417650A70047420650B7010AD
:10355000900758E0600AF50C8E828F837492800C7D
:10356000900756E0F50C8E828F837491F0A3740E51
:103570001236B68E828F83A3A3F08E828F83123C85
:1035800087EE2405F8EF3400F9E8FAE9FBEE2407AA
:103590000808EF12387DF0780E121540AC10AD110E
:1035A0008A828B83E0FAA3E01237E71212ECEEFA7C
:1035B000EFFBA90C122D3680117810121540AC0DBE
:1035C000790E12269474021212EC0234BD74F612B3
:1035D000132DE9FE8C0A8D0B780A121540EEFC794A
:1035E000FF12269474021212EC0233A574F5121322
:1035F0002D890CEAFEEBFF900756E0603690031D24
:10360000E070307A06123F3860388A828B8374917A
:10361000F0A3740F123BA3E50C1236B68A828B839B
:10362000A3A3A3123C68EEF0A3EFF0900756123F5D
:1036300030800FEEFCEFFD890AAA0A7B00790F1299
:10364000268E7F030213FF123BAB740112367512F4
:1036500037D5EEF0900754E0F9122D3622123F5084
:10366000FCA3E0F5838C827404123675FCA3E0F5AC
:10367000838C82A322123F6C2274F712132D74FCE8
:103680001212D6EA851A82851B831236B6C0E07400
:1036900001121321D0E0F07402121321ECF0740334
:1036A000121321ED123FDE7A0412269A74041212CC
:1036B000EC7F010213FFF0900321E02274F012135B
:1036C0002D890B8A0C8B0D8C0A7410121321E0F5D6
:1036D0000EA3E0F50F7407250AFA74FF650B60046A
:1036E000780380027802E82AFA7B00122D2A8A10D9
:1036F0008B11AE10AF11EE4F70030237BE8E828F6A
:10370000837401F0A374FFF0EE24020A0AEF340080
:10371000FBEE2404F8EF123870E50B123866E02453
:1037200002123A90A90D74FF650B60317403250AEB
:103730001236B6C0E01237CCD0E01237F7E50C12E3
:1037400037F7A3E9F0850A0C750D00780C121540C7
:10375000AC0EAD0F8A828B83E0240680557402255F
:103760000A1237C3C0E01237CCD0E01237EEE0C007
:10377000E01237D9D0E01237EEA3E0C0E01237D91B
:10378000A3D0E0123803E50C123803A3E9F0850A50
:103790000CE50C24FDF50CE434FFF50D780C121546
:1037A00040E50E2403FCE50F3400FD8A828B83E0A4
:1037B00024081237DE1212ECEEFAEF123F2C7F08CB
:1037C0000213FFF0850E82850F83E0221237D0228C
:1037D0008A828B83E01238A1221237D0A322FAA367
:1037E000E034001237E722FB122D06740222F08526
:1037F0000E82850F83A3221237FB2212388DA3A3DA
:10380000A3A3221237FBA3A32274F212132D890C57
:103810008A0DECFEEDFF7407250DFA123EC06041E3
:10382000123ED80A0AFBE50A24040808E50B123800
:1038300070E50C12386612389BA3E50DF0601BF59D
:103840000E750F00780E121540EEFCEFFD8A828B8C
:1038500083E024031237DE1212ECAA0AAB0B123FEC
:103860002D7F060213FF12386A22F08A828B832290
:1038700012387D1238897404123889A3223400F971
:103880008A828B83E8F0A3E92212388D22F08A82A3
:103890008B83123D2F227F100213FF123D2BA32298
:1038A000E0123D30A3A3A32274E812132D89178AD6
:1038B0000E8B0F8C168D157418121321E0F518A3BA
:1038C000E0F519741A121321E0FEA3E0FF741C1234
:1038D0001321E0F50AA3E0F50B741E121321123D2B
:1038E000387420121321E0F514900756E07003029B
:1038F00039967A157B00122D2A8A108B11EA451110
:103900007003023A8D123B0C7401F0EA2408FAEBC2
:103910003400FBE5102403123EB7E5177018E4F0FD
:10392000751206F5137812121540AC18AD1912373E
:10393000E81212EC800C7431F07C067D00790012E4
:103940002D1E851082851183A3A3A3A3E50EF0A3EA
:10395000E50F123AD0E516123AD0A3E515F0E510BE
:10396000240E123EB7EEF0A3EFF0E5102410123E45
:10397000B7123C8AE5102412123EB7E50CF0A3E51D
:103980000DF0E5102414123EB7E514F0AA10AB11A7
:10399000900756023A8A90034CE0A2E54003023AAF
:1039A0008D900344E0A2E04003023A8D7A1A7B0036
:1039B000122D2A8A128B13EA45137003023A8D12D4
:1039C0003AB9F510EB3400F511123AB08510828542
:1039D0001183E8F0A3E9123AEB7404123AEBA374F2
:1039E0003E123AFA7413123AFAA37401123B00E53C
:1039F00017123B00A3E50EF0E50FF50E851082854A
:103A00001183123B98E50E123B20E516123B20A3D2
:103A1000E515F0750E06750F00780E121540AC18FE
:103A2000AD19851082851183E024091237DE121248
:103A3000EC851082851183E0240F123A9F123ADE42
:103A40002410123A90EF123ADE2411123AAAF0E54D
:103A50000BF50A851082851183E02412123AAA120E
:103A60003ADE2413123AA4F0E50DF50C8510828598
:103A70001183E02414123AA4123ADE2415123A906B
:103A8000E514F0AA12AB13900754123F3002389697
:103A9000123A9422F8A3E03400F988828983221232
:103AA0003A94EE22123A94E50C22123A94E50A2254
:103AB000EA2404F8EB3400F922123ABD22123AC18A
:103AC000228A828B837401F0A374FFF0EA2402221D
:103AD000F0851082851183A3A3A3A3A3A322123A86
:103AE000E222F0851082851183E022123AEF221241
:103AF0003AF322123AE2123D3022123AEFA3A32205
:103B0000123B0422123AF3A3A3A3A3228A828B833B
:103B10007491123B1622F0A3743E12386AA3A322BA
:103B2000123B04A3A3A32274F412132DEAFEEBFFAD
:103B3000890A900756E060237A06123F3860548A5B
:103B4000828B837491F0A37405123BA3E412386650
:103B5000123C6EE50AF09007568035900345E0A2CE
:103B6000E450307A0B123F38602912365D7405122A
:103B70003BA77404123BA7A3E4123BB8EE123BB878
:103B8000A3EFF088828983123B98E50AF0900754EE
:103B9000123F307F040213FF123B9C221238A0A375
:103BA000A3A322123B1A22123BAB22123F6CFCA3AE
:103BB000E0F5838C82A3A322123BABA3A32274F073
:103BC00012132D8A0A8B0BECFEEDFF7410121321D9
:103BD000123D387412121321E0F50EA3E0F50F9098
:103BE0000756E0603E900344E0A2E250787A0C125F
:103BF0003F386071123B0C7403123BA3A3E4F01234
:103C00003C828A828B83A3A3A3123C6EA3A3A3E569
:103C10000CF0A3E50D123C68A3A3A3123ECD9007C0
:103C200056803F90034CE0A2E5503A900344E0A256
:103C3000E250327A11123F38602B123F40743EF04E
:103C4000A3740AF0A37403F0A3E4F0123C89A3EE7A
:103C5000F0A3EFF0A3E50CF0A3E50DF0123ECF903A
:103C60000754123F300237BE123B1AA3A322123C64
:103C70007222A3A3A3EEF0A3EF12386AA3A3A3A317
:103C8000A3228A828B83A3A3A3A3E50AF0A3E50B57
:103C9000F02274F012132D890FEAFEEBFF8C0E74E4
:103CA00010121321E0F50AA3E0F50B741212132190
:103CB000123D38900346E0A2E350677A0F123F3876
:103CC0006060123AB9FCEB3400FD123AB08C828D80
:103CD00083E8F0A3E9F08C828D83123D25123D4AE2
:103CE000740C123D4AA37408123D5CE50F123D5C52
:103CF000A3EE123D62EF123D62A3E50E123D6EE5AA
:103D00000AF0E50BF50A123D40E50A123D6EA3A349
:103D1000E50CF0E50DF50C123D40A3A3E50CF01207
:103D20003F2D0237BE123D2B740422123D2F22E09C
:103D3000F8A3E0F583888222E0F50CA3E0F50D22DC
:103D40008C828D83123B9CA3A322123D4E22123DF6
:103D50005222F08C828D83123D2FA322123D4EA35E
:103D6000A322123D6622123D52A3A3A3A322123D19
:103D700066A3A32274EC12132D8A0E8B0F8C108D68
:103D8000117414121321123D38850C82F583A3851A
:103D90008212858313900758E060757A0F7B0012BA
:103DA0002D2A8A0A8B0BAE0AAF0BEE4F7003023E30
:103DB000B28E828F837492F0A3743EF08E828F83D2
:103DC000A3A37405F08E828F83123ECD750A087509
:103DD0000B00780A121540AC10AD11EE2405FAEF75
:103DE0001237E11212EC850C82850D83E0FA851200
:103DF00082851383E0F9EAF8EE240DF582EF123E96
:103E0000BBE8F0A3E9F0EEFAEFFB900758023EAFF3
:103E100090034CE0A2E55008900344E0A2E4400681
:103E200012282C023EB27A14123EC07003023EB237
:103E3000123ED8F9EA2404FAEB3400FB8882898325
:103E4000EAF0A3EB123675FEA3E0FF8E828F837437
:103E500004F0A3743EF0A3740DF0A37405F0123EB9
:103E6000CFA3AE82AF83750E08750F00780E1215C2
:103E700040AC10AD11EEFAEF1237E71212ECEE245F
:103E800008FEEF3400FF850C82850D83E08E828F63
:103E900083F085120C85130DA30EAF83850C8285EC
:103EA0000D83E08E828F83F0AA0AAB0B9007541229
:103EB0003F307F0C0213FFF582E5113400F58322B9
:103EC0007B00122D2A8A0A8B0BEA450B22A3A3A39F
:103ED000E50EF0A3E50FF022123ABDF8EB34002214
:103EE00074F412132DEAFEEBFF890A8C0B9007582D
:103EF000E060127A07123F38602F123FC6E50BF0E0
:103F00009007588021900345E0A2E7501C7A0B12DD
:103F10003F386015123F407408F0A37404123FBB91
:103F2000123C8C900754123F30023B93FB90075495
:103F3000E0F9122D36227A087B00122D2AEA4B2254
:103F4000123F50F8A3E0F9888289837404F0A32219
:103F5000123AC1F8EB3400F9EA2404FCEB3400FD1A
:103F600088828983ECF0A3ED123F6C22F08882896D
:103F700083E02274F412132DEAFEEBFF890A900706
:103F800058E060127A07123F38602D123FC6740164
:103F9000F0900758801F90034AE0A2E7501A7A0A6F
:103FA000123F386013123F407430F0A37403123F85
:103FB000BBF0900754123F30023B93F0A3E50AF0A8
:103FC000A3EEF0A3EF228A828B837492123B1674C5
:103FD0000812386A123C72E50A123C79A322F08575
:103FE0001A82851B83AC82AD8322020F8BFFFFFFF9
:103FF000FFFFFFFFFFFFFFFF851C87C2AF020F8B94
:10400000FFFFFFFFFFFFFFFFFFFFFFFFFFFFFFFFC0
:10401000FFFFFFFFFFFFFFFFFFFFFFFFFFFFFFFFB0
:10402000FFFFFFFFFFFFFFFFFFFFFFFFFFFFFFFFA0
:10403000FFFFFFFFFFFFFFFFFFFFFFFFFFFFFFFF90
:020000040002F8
:10300000C082C083E9900AD4F002B28474F712132C
:103010002DE99002DFF07C177D037AFF7BFF1225FC
:103020009E9002E074FFF0A3F0A3E4F0A3F0790512
:103030001225269002DFE0F912244E7ABC7B25127D
:10304000277E02BF9274F412132D8A0A8B0BEB5465
:103050008060309002DFE0F9122D428A0C8B0DAEB9
:103060000CAF0DEE4F60138E828F83E064B070035F
:1030700012253EEEFAEFFB122D30AA0AE50B648012
:10308000FB80047A007B0002B25374F212132D7499
:10309000FC1212D6EAFEEBFF741212132112C4794D
:1030A000EE4F700302B12D7402121321EEF0A3EF64
:1030B00012B48EECF0A3ED12B48EAA82AB8312246C
:1030C00048E9F50C706AE50A450B60648E828F83CF
:1030D00012C45FEE4F60567A067B00122D968A0E60
:1030E0008B0FA80EA90FE8497005750C1380418855
:1030F000828983E412B13AEEF0A3EF12C48AE50AA2
:10310000F0A3E50BF09002E512B1C19002E5700565
:1031100012BF3C801B12BF2A8003EAFCEBFD8C82AD
:103120008D8312B1C170F38C828D8380E3750C02A4
:10313000A90C74041212EC02C679F0A312C430A3D5
:103140002274F212132D890CE975F017A4FEAFF06A
:103150009002E4E4F09002E212B1C1600A122D9CE8
:103160009002E2E4F0A3F0EEFAEFFB122D968A0A49
:103170008B0BEA450B602FEEFCEFFD7900122D1E44
:103180009002E2E50AF0A3E50BF07B00800812B1A3
:10319000ABE4F0A3F00BEBC3950C40F2E50C90020E
:1031A000E4F079008002791302C679EB75F017A478
:1031B000F8A9F09002E2E028FAA3E0398A82F583C8
:1031C0002212BBCEEA4B2274F412132D740C12138C
:1031D0002112C454FEE9FF750A00750B00800CE54E
:1031E0000A2401F50AE50B3400F50BC3E50A9CE55A
:1031F0000B9D5032850A0C850B0D7403780C12124E
:10320000C3EA250CF8EB350DF988828983A3A3A3C3
:10321000A3A3A312C011EE650C7003EF650D70BF80
:10322000E8FAE9FB80047A007B00802774F412132B
:103230002D7900EAA2E0501B750A36750B83780AD7
:103240001215407C047D007AD67B0A122520740278
:103250001212EC7F040213FFC082C0839002E512B9
:10326000B28B601C88828983A3A3E06A7003A3E009
:103270006B8882898370E8A3A3A3A312BBCA8004CE
:103280007A007B00D083D082020F8B12C75FE8499F
:103290002274EE12132D74FC1212D6EAFEEBFF8597
:1032A0001A82851B83E4F0A3F0EE240212BF1CEE09
:1032B000240512C437EE2404F510EF12B843E024BD
:1032C000FE603924FC604624FE605224FE605E24C9
:1032D000FE700302B3A424FE700302B40824FE703F
:1032E0000302B41724FE700302B42624FC70030208
:1032F000B43524FE700302B44402B4819002FE741B
:1033000017F0A3E412B4961221C602B481851A8282
:10331000851B83AC82AD8312254402B451851A8289
:10332000851B83AC82AD8312254A02B451850E0AF7
:10333000850F0B7402121321AC82AD83850A82853E
:103340000B8312BBCA12246C8A0E8B0FAC0EAD0F0E
:10335000EC4D603BE4F50EF50F780E121540750E3E
:10336000FE750F02780E121540750EFF750F02786C
:103370000E121540740812132112155712C8DB12D1
:1033800012ECE9F50E700B12BBC01221DE800F7536
:103390000E01850A82850B8312B48412BF3C850E10
:1033A0000A02B4547402121321AC82AD83850E82DA
:1033B000850F8312B995603C850E82850F83A3A388
:1033C0001215577512FE75130278121215407512F8
:1033D000FF7513027812121540740812132112158A
:1033E0005712C8DB1212ECE9F50B700B12BBC012BE
:1033F00021E4800F750B01850E82850F8312B48442
:1034000012BF3C850B0A804C851A82851B83AC82D7
:10341000AD83122550803A851A82851B83AC82AD1C
:1034200083122556802B851A82851B83AC82AD833F
:1034300012255C801C851A82851B83AC82AD8312A9
:103440002562800D851A82851B83AC82AD8312258F
:1034500068E9F50AE50A60298E828F83A3E0641487
:10346000601F851082851183E09002FE12B48E12D7
:10347000C75B9002FF12BF3CE50AA312B49612216B
:10348000C002BE2B12C75F851A82851B8322F0857E
:103490001A82851B8322F07CFE7D02850C82850DBD
:1034A0008312BBCE2274EE12132D74FC1212D68A34
:1034B0000C8B0D8C108D11EA2405F50AEB3400F508
:1034C0000B7C157D0079007AFE7B02122D1EE50A29
:1034D0002402F50EE50B12C43A851A82851B8385FA
:1034E00082128583137812121540850A82850B8318
:1034F000A3A3A3A312B98C121540E50A2405F51263
:10350000E50B3400F5137812121540850E82850FF5
:103510008312BCE112246674061212EC8A128B1319
:10352000AE12AF13E50C2402F50CE50D12BF1FEE31
:103530004F700302B6638017740212132112BBCAC4
:1035400088828983EAF0A3EBF09002FEE004F09019
:1035500002FEE0C39405400302B663E4F512F513DE
:1035600078121215407512E7751302781212154081
:103570007512E875130278121215407406121321A1
:103580001215577910EEFCEFFD12C8DD1212ECE9AE
:10359000705E850A82850B83A3A3A3A3A3A3A3E0E4
:1035A000F89002E7E068704812B98C1215407CE888
:1035B0007D02E50A2408FAE50B3400FB122D18748D
:1035C000021212ECE960298E828F83A3A3A3A312B7
:1035D000BBCA9002FEE0F512740278121212C37494
:1035E000FF2512F58274023513F583EAF0A3EBF0A0
:1035F00074021213218582128583137812121540EA
:103600007402121321121557850E82850F8312BB87
:10361000F01212EC8A128B13AE12AF139002FEE07E
:10362000F512751300740278121212C374FE25127B
:10363000F874023513F988828983A312B1C170032B
:1036400002B52FE82403080808E93400F9EE4F60BA
:103650000302B5388882898374FFF0A3F09002FEDC
:10366000E004F09002FEE0600A12BBC01221D279A1
:1036700000800B850A82850B8312BF33790A02BE54
:103680002B74EA12132D74FE1212D68C148D15EAC7
:103690002405F50EEB12C8C512C463750A00750B3C
:1036A00000EA2402F512EB3400F513851A82851B1B
:1036B0008385820C85830D780C121540850E8285DA
:1036C0000F83A3A3A3A312B859121540E50E240536
:1036D000F50CE50F12BF1F780C121540850E828580
:1036E0000F8312B85D12246674061212EC8A0C8BDA
:1036F0000DEA450D700302B7FEEA2404F510EB1243
:10370000B84312C4638A828B83A3A3A3E0F9851212
:103710008285138312BBD4600302B7FEE4F516F56D
:103720001778161215407516E775170278161215D8
:10373000407516E8751702781612154074061213B4
:10374000211215577913AC0CAD0D851282851383A8
:1037500012C8E31212ECE9F50B600302B7FE900207
:10376000E7E0F8E50A7009E024029002FFF0801417
:103770009002FFE0FCE82402FAE43400FBEA6C70FB
:1037800001EB707E850A82AA8212B983941412B961
:103790007B506B851082851183E0C0E074002A1293
:1037A000B83AD0E0F0050A851082851183A3E0C005
:1037B000E0850A0C7400250C12B83AD0E0F0050A36
:1037C0009002E712B8591215407CE87D02850A0C78
:1037D0007400250C12B84D1212EC9002E7E0250A95
:1037E000F50A74FF6E700374FF6F6012EE24010E11
:1037F000EF3400FFE50AC39414500302B6ABE50AA8
:10380000601312BBDE85128285138312BBCA12219C
:10381000D879008014E50B7003750B0A8514828536
:103820001583EEF0A3EFF0A90B74021212EC7F0ED9
:103830000213FF850A0E7400250EF582740334000E
:10384000F583223400F511851082F58322FA740382
:103850003400FB122D0674022212C49922A3A31273
:10386000B8632212BF2AFDEEFAEFFB2274EE1213A8
:103870002D74FE1212D68C108D11EA2405F50EEB74
:1038800012C43A750D009002FEE4F0F50CEA240231
:10389000F50AEB3400F50B80449002FEE0FA90024A
:1038A000E7E0F812B983941712B97B400D9002FE3D
:1038B000E0F87416C3989002E7F012B98C12154024
:1038C0007CE87D0274FF2AFA740212B8501212ECDE
:1038D0009002E7E0F89002FEE028F0050CE50E24E7
:1038E00016F582E50F12B83EE0F8E50CC398507467
:1038F0009002FEE0C39416506BE50CC333F8E4333A
:10390000F9E50E28FEE50F39FF851A82851B83AC89
:1039100082AD838E828F8312B9957008750D011266
:10392000BF2F8050E4F512F513781212154075126E
:10393000E775130278121215407512E875130278B4
:103940001212154074061213211215577916850AA2
:1039500082850B8312C8E31212ECE9F50D700302A5
:10396000B89980BB7CFE7D02850A82850B8312BBE1
:10397000CA1221EAA90D740202BE2DE99400C365A2
:10398000D03322EA28F8E43400F9E822E0F5127591
:10399000130078122212BE228A128B13AC12AD13BE
:1039A000EC4D2274EA12132D74FC1212D68A0E8B7F
:1039B0000F8C148D15EA2405F50CEB12BF1F750A48
:1039C00000750B00E50C2402F512E50D3400F5132B
:1039D000740212132185821085831178101215400C
:1039E000850C82850D83A3A3A3A312C43F121540A7
:1039F000E50C2405F510E50D3400F51178101215CD
:103A00004085128285138312BF2512BBC41224661F
:103A100074061212EC8A108B11AE10AF11E50E2451
:103A200002F510E50F3400F511803888828983741F
:103A3000FFF0050A12B83374FFF0050A9002E7E0C0
:103A4000F50E750F00780E1215407CE87D02850A90
:103A50000E7400250E12B84D1212EC9002E7E0250C
:103A60000AF50AEE4F60278E828F83A3A3A3E0F9A5
:103A700085108285118312BBD4EE240412C437E969
:103A80006027850E82850F8312BBB612BF3CE50A04
:103A9000700302BB9C12BBDE85108285118312BBB2
:103AA000CA1221F0790002BBB1E4F516F5177816B9
:103AB0001215407516E7751702781612154075161F
:103AC000E8751702781612154074081213211215A2
:103AD000577911EEFCEFFD85108285118312C8E342
:103AE0001212ECE9F50B709A850A82AA82EA90021A
:103AF000E77009E024049002FFF08025E0F89002CE
:103B0000FFE0F516E82404FCE43400FDEC651670D3
:103B100001ED708112B983941212B97B400302BA8D
:103B200095850E82850F83E0C0E074002A12B83AB2
:103B3000D0E0F0050A850E82850F83A3E0C0E01275
:103B4000B833D0E012BBF985820E85830F780E1250
:103B500015407404121321121557851282851383A0
:103B600012BBF01212EC8A0E8B0FAE0EAF0F850A4D
:103B70000E7400250EF874033400F9EE4F70030242
:103B8000BA2B851A82851B83E08882898312BBF950
:103B9000A3E0C0E012B833D0E002BA39E50B7003FD
:103BA000750B0A850C82850D8312BBB612BF3CA92A
:103BB0000B740402B82B12C75F851482851583220B
:103BC0007CFE7D02850C82850D8312BBCE22E0FA3D
:103BD000A3E0FB2212BBCE122454E9F50B22900283
:103BE000FFE0F5F0E50A849002FEF07CFE7D022203
:103BF00012B863122472740422F0050A851A8285B1
:103C00001B832274EC12132D74FE1212D68A0A8BB7
:103C10000B8C108D11EA2405FEEB3400FF12BE0C54
:103C2000EE241812C437EA450D700302BCAF12BD72
:103C3000F5502912BCD48A128B13EA4513606B79B4
:103C400012AC0CAD0D850A82850B8312BBCA85129E
:103C50008285138312132BE9F50C7058E4F50CF5EB
:103C60000D780C1215408E828F83A3A3E0F50C789B
:103C70000C121540EE240312BF1C780C1215408E56
:103C8000828F8312BCE112258C74061212ECE9F5C6
:103C90000C7021850E82850F83E0701F850A828556
:103CA0000B8312BBCA1221F68011750C0E800975A8
:103CB0000C018004E50C600312BF2F850E82850F76
:103CC00083E0600479008002A90C74021212EC7F78
:103CD0000C0213FF851A82851B8312BBCE12257A34
:103CE0002212BF2AFD850A82850B8312BBCE227465
:103CF000EE12132D74FE1212D68A0A8B0B8C0E8DC7
:103D00000FEA2405FEEB3400FF75100012BE0CEA2A
:103D1000450D700302BDD312BDF5502C12BCD48AE0
:103D2000108B11EA4511604A7912AC0CAD0D850A71
:103D300082850B8312BBCA85108285118312132BD7
:103D4000E9F510600302BDD6850A82850B8312C097
:103D500011AA0CFB12BDE770147AFF7BFF12BDE7BE
:103D6000606C88828983E50CF0A3E50DF0750C008A
:103D7000800775100E805F050C9002E4E0FAE50CF8
:103D8000C39A504AE50C75F017A4FAABF088828903
:103D900083A3A3E02AFAA3E03BFB8A828B8312BFB2
:103DA00025EC4D70D2750C17750D00780C1215406E
:103DB000EEFCEFFD122D0674021212ECEEFCEFFD8C
:103DC000850A82850B8312BBCA1221FC80147510F0
:103DD00009800375100112C757850E82850F831263
:103DE000BF3CA91002B97612256E8A128B13A81255
:103DF000A913E84922E50A2402F50AE50B3400F587
:103E00000B8A828B83A3A3A3E0A2E522851A828575
:103E10001B83AC82AD838E828F8312BE228A0C8B71
:103E20000D22E0FAA3E0FB12246C2274041212ECBF
:103E30007F0A0213FF74EC12132D8C128D13EA24E7
:103E400005F50EEB12C43A751100EA2402F50CEBED
:103E500012BF1F850C82F58312BBCA12C969700399
:103E600002BF117510008071850E82850F83E0649A
:103E700001704F8E828F83A3A31215578E828F837A
:103E8000A3A3A3A3E0F5147515007814121540EE52
:103E90002405F514EF3400F515781412154012BB03
:103EA000C412258C74061212ECE9F5116014850E0B
:103EB00082850F83E4F012C757851282851383121F
:103EC000BF3C7C177D007900EEFAEFFB122D1E8EB1
:103ED000828F83E4F0A3F005109002E4E0F8E5108F
:103EE000C398501EE51075F017A4F8A9F0850A8252
:103EF000850B83A3A312C8CF12BF25EC4D6003022C
:103F0000BE68850A82850B8374FFF0A3F0E511700B
:103F10000612BBC4122202A91102BCCFF50CEF3469
:103F200000F50D22A312BF2AFD22E0FCA3E0228EA1
:103F3000828F8312C75F851082851183E8F0A3E921
:103F4000F022C082C0839002E0E06A7003A3E06BBD
:103F500070067AE07B0280047A007B0002B28474EF
:103F6000F712132D7F00EF75F003A4F8A9F0EC28E9
:103F7000F8ED39F988828983E06A7003A3E06B70F9
:103F800006E8FAE9FB800B0FEFC3940240D87A00F1
:103F90007B007F010213FF74F612132D12C54870C7
:103FA000067A007B008007A3A3A3A312BBCA02C6A4
:103FB0000974F212132DE9FE740E12132112C011AE
:103FC000741012132112C4798C828D83E064027004
:103FD0003BA312C75B88828983E0F50EA3E0F9A8B2
:103FE0000E74026870037429697021750E02750FD2
:103FF00000780E121540780A121540780C12154000
:10400000EEF91225B074061212EC8002790102C694
:1040100079E0F50CA3E0F50D2274E812132D74FB82
:104020001212D6E9851A82851B83F08A188B198CA7
:10403000108D11741F12132112C4797421121321CF
:1040400012C011742312132112C4637512008C82E2
:104050008D83A3A3A3E0A2E4502A741D121321129E
:10406000BCDA8A828B83E5824583700302C125799D
:104070000AAC10AD11AA18AB1912132BE9F5126096
:104080000302C128851082851183E0640260030267
:10409000C3DEA312C75B850A82850B83A3858214C6
:1040A000858315E5102406F50EE51112C43A8882C1
:1040B0008983E0FAA3E0F9EA2400F516E439F5175C
:1040C00078161215CA010000280128EDC007000269
:1040D00028C4C1032834C10029EEC2012916C30235
:1040E00029BDC20329EEC204297FC3DEC3EE4F708F
:1040F0003E850E82850F8312C454FAE9FB8A828BB7
:1041000083E0850C82850D8312C4901215408A824B
:104110008B83A312BF2AFDAA0AAB0B122D067402D1
:104120001212EC800375120EA912740502C8BD7537
:10413000120B80F4EE4F70F7850C82850D837401AD
:10414000F012C469850A82850B83F07C007D0085AE
:104150001082851183A3A3A3A3E02401FAA3E03472
:1041600000FB12246CEA4B60418A828B83E02402BC
:10417000F8850C82850D83E028F0EA2404F8EB34FE
:1041800000F988828983E085148285158312C4A290
:1041900012C4901215408A828B8312BF24E50A2430
:1041A00003FAE50B3400FB02C11B850C82850D83ED
:1041B000E02404F07C047D007900AA14AB15122DD4
:1041C0001E02C128EE4F600302C12F12C469FEA374
:1041D000E0FF850C82850D837404F0EE850A8285EC
:1041E0000B83F0EF851482851583F074031213217D
:1041F000AC82AD83EEFAEFFB12C536700302C29AB1
:104200008A828B83A3A312C45F7401121321858257
:1042100010858311781012154074051213211215A0
:10422000577CFF7DFF12247274041212EC8B11EA8A
:1042300045117033850E82850F8312C43F121540DD
:10424000850E82850F83A31215577C027D007A5359
:104250007B8412229E74041212ECE9700A7401121B
:10426000132174FFF0A3F08E828F83E06402703418
:10427000750E02750F00780E1215408E828F831214
:10428000BF24E50A2404FAE50B12B8501212EC859B
:104290000C82850D83E0240280097401121321EE43
:1042A000F0A3EFF0740112132112C450F074011244
:1042B0001321A312C448A3A3A3F002C128EE4F60A8
:1042C0000302C12F850E82850F8312BF25AA18AB6A
:1042D000191225A4850C82850D837402F0EA850AE3
:1042E00082850B83F0851482851583EB80CBEE4F9E
:1042F000600302C12F12C469F8A3E0F9850C82851E
:104300000D837402F0E8850A82850B83F0E9851439
:104310008285158380A3850E82850F8312BBCA1206
:104320002D00EAFC8C82A882C39EE49F404BE86E7D
:104330007001EF70047C00801F851A82851B83E06A
:10434000FAEE2AFAEF3400FBC3EA98EB940050032C
:10435000E08004EECCC39CFCEC850C82850D83F0E0
:104360008C0C750D00780C121540850E82850F831C
:10437000E02EFCA3E03F02C11675120702C128EE31
:104380004F600302C12F850E82850F8312C75B85A4
:104390000C82850D837407F08882898312C44812C9
:1043A000C430E0851482851583F0E82402FAE934EC
:1043B00000FB8A828B8312C44812C48112C450A3AA
:1043C00012C48A12C459F0E82405F8E93400F988C7
:1043D00082898312C459A312C4A2A302C2B6741D57
:1043E00012132112C541700302C12512C75B880E4A
:1043F000890FE8450F700302C1258E128F137812C2
:10440000121540780C121540780A121540740612E5
:104410001321E0F9AC10AD11AA18AB19850E8285F5
:104420000F8312132B74061212ECE9F51202C12845
:10443000F088828983A322F50EEF3400F50F22E085
:10444000F510751100781022E0850A82850B832211
:1044500012C4A92212C75FE82212C4A9A3A322A3EF
:10446000A3A3A3E0FEA3E0FF22850E82850F83E0D5
:10447000F8A3E0F5838882E022E0F50AA3E0F50BDB
:1044800022A3A3F08A828B83A32212B13CA3A3228E
:10449000F08A828B8312C49922E0F50C750D0078A6
:1044A0000C2212C43012C4A922E0850A82850B8333
:1044B000A3A32274EE12132D74FE1212D68A0C8B53
:1044C0000DECFAEDFB7414121321E0F512A3E0F5E4
:1044D000137416121321E0FE7418121321E0F51064
:1044E000A3E0F511851A82851B83AC82AD8312C5CA
:1044F00036603E851A82851B8312C541602FA3A3B7
:1045000012C479E50A450B60247810121540781220
:10451000121540EEF9AC0EAD0FAA0CAB0D850A8258
:10452000850B8312132B74041212EC8006790E8013
:1045300002790102B97612246C8A0E8B0FEA450FBC
:104540002212BBCE12C548221225388A828B83E5FF
:104550008245832274F612132D74FE1212D6740C47
:1045600012132112C454851A82851B83F074011220
:104570001321E9F0E4F50AF50B780A121540750AE3
:1045800002780A121540740412132185820A858369
:104590000B780A12154012258C74061212EC740264
:1045A0001212EC806474F712132DEAFEEBFF890AF5
:1045B0007C177D031225A4EA5402600BA90AEEFAC7
:1045C000EFFB1224608002790102BF9274F612138D
:1045D0002D74FF6A700374FF6B701C7B00EB75F029
:1045E00003A4F8A9F0EC28F8ED39F912C60E0BEB8C
:1045F000C39402501480E61225748A0A8B0BA80A11
:10460000A90BE849600312C60E7F020213FF8882DD
:10461000898374FF12B13AE4F02274F612132D125A
:1046200025748A828B83E58245836006A3A3E0FA22
:1046300080027A007B0080D174F212132D8A0A8BDB
:104640000BECFEEDFF740E121321E0F50C12C67E8A
:10465000701CEEFCEFFD7AFF7BFF12C67E700479C2
:1046600011801688828983E50AF0A3E50BF0888221
:104670008983A3A3E50CF079007F060213FF1225BE
:10468000748A0E8B0FA80EA90FE8492274EE12133C
:104690002DEAFEEBFF8C0A8D0B890E74121213218A
:1046A00012C75B741412132112BF25741612132142
:1046B00012BBCA750F00EC4D600302C74F74026550
:1046C0000E600302C74A8882898312BF2AF9EC244C
:1046D00000F510E439F511EAF4F8EBF4F9EC58F8C8
:1046E000E51159F9E849705DE50A2406F8E50B344F
:1046F00000F9880C890D8882F58312B85F1225A411
:104700008A128B13E51065127004E511651360427F
:104710007810121540850C82850D8312B85F122522
:10472000AA74021212ECE9F50F70277810121540E6
:10473000850A82850B83A3A312B85D1225C2740279
:104740001212EC800D750F808008750F0D800375B7
:104750000F0BA90F02BE308E828F8312C75F22E03B
:10476000F8A3E0F92274E812132D74E71212D6852B
:104770001A82851B83EAF0A3EBF08C188D1989103F
:104780007431121321E0F514A3E0F51574331213FC
:1047900021E0F516A3E0F5177435121321E0F511A9
:1047A000750A00750B00E50B75F003A4F8A9F085F8
:1047B0001A82851B8312C8CFE0F47003A3E0F47063
:1047C0000302C8ADEE2402F50EEF12C8C5E0700377
:1047D00002C8AD85180C85190D780C121540AC1661
:1047E000AD17AA14AB1512252C74021212EC8A0C08
:1047F0008B0DEA450D700302C8ADE4F512F5137890
:1048000012121540740612132185821285831378C3
:1048100012121540740912132185821285831378B0
:1048200012121540851482851583A3A3A3A3121524
:10483000577914AC0CAD0D8E828F8312C8E312121F
:10484000ECE97069850C82850D83A3A3A3A312C72D
:104850005B740212132112BF3C850E82850F83E028
:10486000A2E05018A9107402121321AC82AD838EFD
:10487000828F8312BBCA122484E9420A850E828584
:104880000F83E0A2E15026E511F50C780C121544D7
:10489000A9107403121321AC82AD838E828F831210
:1048A000BBCA12247E74011212ECE9420A050BE520
:1048B0000BC39402500302C7A6A90A74191212EC82
:1048C0007F100213FF3400F50F850E82F58322E07E
:1048D00028FEA3E039FF8E828F83227916850C8211
:1048E000850D8312BBCE12258674082274F2121332
:1048F0002DEAFEEBFF890D7401650D600E740265F3
:104900000D7063790112279CE9705BEEFAEFFB12E0
:10491000C9696047750C00800B7C177D0079001217
:104920002D1E050C9002E4E0F8E50CC3985021E53B
:104930000C75F017A4F8A9F0850A82850B83A3A350
:10494000E028FAA3E039FB8A828B8312B28B70C90C
:10495000850A82850B8374FFF0A3F07C177D03EE3C
:10496000FAEFFB12259E02C67912256E8A0A8B0B7E
:10497000EA450B2274F212132D8A0A8B0BECFEED22
:10498000FF740E12132112C011900AD4E0F4603D9E
:104990007A097B00122D2AEA4B60328A828B83745B
:1049A000B1F0A3E412C483A312C481A3E50AF0A367
:1049B000E50B12C9D0EEF0A3EF12C9D0A3A3E50C0A
:1049C000F0A3E50DF0900AD4E0F9122D3602C67975
:1049D000F08A828B83A3A3A3A3A322C082C0839067
:1049E00061907404F0A37448F0A37402F0906180A5
:1049F0007440F09061BC7403F09061877419F0907A
:104A00006265741BF090619C740DF090619A743330
:104A1000F0A37455F09061A0743AF090055BE064E7
:104A2000017009C2919003C5746780059003C57435
:104A300061F0903362E493906186F0903364E49384
:104A4000F46027E493540FF8906185E0686012E504
:104A5000C654804449F5C6E59E547F644970F8E821
:104A6000F053C680E59E547F70FA7905122AEA0257
:104A7000CC1DC082C083E9540FF9906185E0696064
:104A800012E5C654804449F5C6E59E547F644970DA
:104A9000F8E9F053C680E59E547F70FA02CC1DC041
